:020000040000FA
:10000000008000100902000011020000130200002D
:100010001502000017020000190200000000000095
:100020000000000000000000000000001B020000B3
:100030001D020000000000001F020000210200005D
:10004000230200002302000023020000230200001C
:10005000230200002302000023020000230200000C
:1000600023020000230200002302000023020000FC
:1000700023020000230200002302000023020000EC
:1000800023020000230200002302000023020000DC
:1000900023020000230200002302000023020000CC
:1000A00023020000230200002302000023020000BC
:1000B00023020000230200002302000023020000AC
:1000C0002302000000F002F800F029F80AA090E8EE
:1000D000000C82448344AAF10107DA4501D100F003
:1000E0001EF8AFF2090EBAE80F0013F0010F18BFA7
:1000F000FB1A43F001031847FC0400000C05000044
:10010000103A24BF78C878C1FAD8520724BF30C843
:1001100030C144BF04680C6070471FB51FBD00F0BC
:10012000A5F81146FFF7F9FF00F080F800F0A6F8F7
:1001300070477047FFF7FDFF00F016F800F028F851
:1001400000F03AF800F04CF8FFF7F2FF0BE000F097
:100150000CF800F01EF800F030F800F042F84FF410
:10016000FA7000F037FAF2E770470848007820B1DB
:10017000012803D0022803D101E001E000E000BF24
:1001800000BF70470020014908707047C800001088
:1001900070470848007820B1012803D0022803D115
:1001A00001E001E000E000BF00BF7047002001490E
:1001B00008707047C900001070470848007820B1E7
:1001C000012803D0022803D101E001E000E000BFD4
:1001D00000BF70470020014908707047CA00001036
:1001E00070470848007820B1012803D0022803D1C5
:1001F00001E001E000E000BF00BF704700200149BE
:1002000008707047CB00001006488047064800473A
:10021000FEE7FEE7FEE7FEE7FEE7FEE7FEE7FEE7B6
:10022000FEE7FEE701030000C500000010B500F086
:1002300064F8BDE81040FFF77DBF0000F0B50A4D3F
:100240002B682A685AB96E061C463346002254F8B9
:10025000227043F82270521C312AF8D32E6003EB2F
:1002600080000164F0BD000008ED00E002486A462D
:1002700020F0070070470000E3000010044600F083
:100280003AF808B100F02AF90CB100F099F8FEE74D
:1002900039B1012904D181680A68406802430A60C3
:1002A000704781680A6840688243F8E770B5044681
:1002B00016460D46481C1DD02846256000F06EF8F5
:1002C000606025F01F0000F11801E160091D216147
:1002D00008396161A06031462046FFF7D9FF1EB1A1
:1002E000012E07D1022100E003212846BDE870401D
:1002F00000F0C2B870BD00F0E9B87047FFFFFFFF23
:10030000244810B52021C0F8A011D0F8A01189060A
:1003100003D5D0F8A0114906FBD500F180000221D9
:10032000C0F884104FF00002C0F82821C0F82C213A
:100330004FF00101C0F88C104FF00B0343604FF0F9
:10034000AA03C3604FF05504C4600160C360C46079
:10035000A0F18000D0F888104901FBD5032140F8B6
:10036000801FC360C4608038D0F8881011F0407FCF
:10037000FAD00521C0F808110749C0F8C410C0F828
:10038000C821016843F23A0221F47041114301602F
:1003900010BD000000C00F40DE87280410B50446E1
:1003A000002100F04FF804F01F010120884010BD2B
:1003B000426809B1C06800E000690260704700004F
:1003C00098B001221E496846FFF770FF1C490122C0
:1003D000891C06A8FFF76AFF19490122C91C0CA84D
:1003E000FFF764FF16490122491D12A8FFF75EFFBF
:1003F00001216846FFF7DCFF002106A8FFF7D8FFC0
:1004000000210CA8FFF7D4FF012112A8FFF7D0FFAD
:10041000962000F0DFF800216846FFF7C9FF0121B0
:1004200006A8FFF7C5FF01210CA8FFF7C1FF0021B7
:1004300012A8FFF7BDFF962000F0CCF8D8E7000027
:1004400032C0092010B5421C10D0094A10440309DB
:100450000007C20E074800EB8300036803249440A2
:10046000A3430360036891400B43036010BD000089
:100470000040F6DF00C00240F0B5421C21D0114A16
:10048000114E1044420906EB820200F01F05976EE0
:10049000C1F3800303FA05F4A7439766956E2543DD
:1004A0009566002B0DD103090007C20E06EB8300F1
:1004B000036C03249440A3430364036C91400B43F7
:1004C0000364F0BD0040F6DF00C00240024800684F
:1004D000C0F3000070470000F0ED00E01FB5694672
:1004E0001820ABBE04B010BD014901200860704760
:1004F000004009400248416921F001014161704713
:1005000000400940114810B5016800291DD10122A1
:1005100002600F48016841F4000101600D480021AC
:1005200001670D4909688908022343600B4BB1FB41
:10053000F3F1491EC160426009490420FFF77EFEC5
:100540004FF0E0201021C0F8001110BDD0000010C5
:10055000C4C00F4000400940CC00001040420F00D2
:100560006505000010B5FFF7BFFF0D4C206870B1A6
:1005700000F018F821680A68101A00280BDC886857
:1005800020606268002AF1D048689047EEE7BDE835
:100590001040FFF7AFBF0868BDE8104000F010B88A
:1005A000D4000010044810B5006808B9FFF7AAFF8E
:1005B0000248806810BD0000D000001000400940D3
:1005C00003498861486940F00100486170470000B4
:1005D000004009404FF47A714843AFF3008070B592
:1005E0000446FFF7DFFF0546FFF7DCFF401BA04294
:1005F000FAD370BD04060000C8000010140000000B
:10060000000100000000000000D8B8050000000054
:080610000000000000000000E2
:04000005000000C532
:00000001FF
